{
  "contractName": "MyDeFiProject",
  "abi": [
    {
      "inputs": [
        {
          "internalType": "address",
          "name": "daiAddress",
          "type": "address"
        }
      ],
      "stateMutability": "nonpayable",
      "type": "constructor"
    },
    {
      "inputs": [],
      "name": "dai",
      "outputs": [
        {
          "internalType": "contract IERC20",
          "name": "",
          "type": "address"
        }
      ],
      "stateMutability": "view",
      "type": "function",
      "constant": true
    },
    {
      "inputs": [
        {
          "internalType": "address",
          "name": "recipient",
          "type": "address"
        },
        {
          "internalType": "uint256",
          "name": "amount",
          "type": "uint256"
        }
      ],
      "name": "foo",
      "outputs": [],
      "stateMutability": "nonpayable",
      "type": "function"
    }
  ],
  "bytecode": "0x608060405234801561001057600080fd5b506040516104553803806104558339818101604052810190610032919061008d565b806000806101000a81548173ffffffffffffffffffffffffffffffffffffffff021916908373ffffffffffffffffffffffffffffffffffffffff160217905550506100ff565b600081519050610087816100e8565b92915050565b60006020828403121561009f57600080fd5b60006100ad84828501610078565b91505092915050565b60006100c1826100c8565b9050919050565b600073ffffffffffffffffffffffffffffffffffffffff82169050919050565b6100f1816100b6565b81146100fc57600080fd5b50565b6103478061010e6000396000f3fe608060405234801561001057600080fd5b50600436106100365760003560e01c8063bd0d639f1461003b578063f4b9fa7514610057575b600080fd5b6100556004803603810190610050919061018a565b610075565b005b61005f610127565b60405161006c9190610245565b60405180910390f35b60008054906101000a900473ffffffffffffffffffffffffffffffffffffffff1673ffffffffffffffffffffffffffffffffffffffff1663a9059cbb83836040518363ffffffff1660e01b81526004016100d092919061021c565b602060405180830381600087803b1580156100ea57600080fd5b505af11580156100fe573d6000803e3d6000fd5b505050506040513d601f19601f8201168201806040525081019061012291906101c6565b505050565b60008054906101000a900473ffffffffffffffffffffffffffffffffffffffff1681565b60008135905061015a816102cc565b92915050565b60008151905061016f816102e3565b92915050565b600081359050610184816102fa565b92915050565b6000806040838503121561019d57600080fd5b60006101ab8582860161014b565b92505060206101bc85828601610175565b9150509250929050565b6000602082840312156101d857600080fd5b60006101e684828501610160565b91505092915050565b6101f881610260565b82525050565b610207816102a8565b82525050565b6102168161029e565b82525050565b600060408201905061023160008301856101ef565b61023e602083018461020d565b9392505050565b600060208201905061025a60008301846101fe565b92915050565b600061026b8261027e565b9050919050565b60008115159050919050565b600073ffffffffffffffffffffffffffffffffffffffff82169050919050565b6000819050919050565b60006102b3826102ba565b9050919050565b60006102c58261027e565b9050919050565b6102d581610260565b81146102e057600080fd5b50565b6102ec81610272565b81146102f757600080fd5b50565b6103038161029e565b811461030e57600080fd5b5056fea26469706673582212209286c4e59610b3ca8ea3b878ec4b1cd010226eee5236b7d0d253ce6c6fe7c73f64736f6c63430008000033",
  "immutableReferences": {},
  "source": "pragma solidity ^0.8.0;\n\nimport \"@openzeppelin/contracts/token/ERC20/IERC20.sol\";\n\ncontract MyDeFiProject {\n    IERC20 public dai;\n\n    constructor (address daiAddress) public {\n        dai = IERC20(daiAddress);\n    }\n\n    function foo(address recipient, uint amount) external {\n        dai.transfer(recipient, amount);\n    }\n}\n\n",
  "sourcePath": "/Users/david/Ethereum/DeFi3-Dai/contracts/MyDeFiProject.sol",
  "compiler": {
    "name": "solc",
    "version": "0.8.0+commit.c7dfd78e.Emscripten.clang"
  },
  "schemaVersion": "3.3.4",
  "updatedAt": "2021-05-08T19:31:40.180Z",
  "networkType": "ethereum",
  "devdoc": {
    "kind": "dev",
    "methods": {},
    "version": 1
  },
  "userdoc": {
    "kind": "user",
    "methods": {},
    "version": 1
  }
}